{
  "address": "0xAf2D365e668bAaFEdcFd256c0FBbe519e594E390",
  "abi": [
    {
      "anonymous": false,
      "inputs": [
        {
          "indexed": true,
          "internalType": "address",
          "name": "recipient",
          "type": "address"
        },
        {
          "indexed": true,
          "internalType": "address",
          "name": "token",
          "type": "address"
        },
        {
          "indexed": false,
          "internalType": "uint256",
          "name": "reward",
          "type": "uint256"
        }
      ],
      "name": "IncentiveRewardClaimed",
      "type": "event"
    },
    {
      "anonymous": false,
      "inputs": [
        {
          "indexed": true,
          "internalType": "address",
          "name": "contributor",
          "type": "address"
        },
        {
          "indexed": true,
          "internalType": "address",
          "name": "token",
          "type": "address"
        },
        {
          "indexed": false,
          "internalType": "uint256",
          "name": "contribution",
          "type": "uint256"
        }
      ],
      "name": "IncentiveRewardContributed",
      "type": "event"
    },
    {
      "anonymous": false,
      "inputs": [
        {
          "indexed": true,
          "internalType": "address",
          "name": "previousOwner",
          "type": "address"
        },
        {
          "indexed": true,
          "internalType": "address",
          "name": "newOwner",
          "type": "address"
        }
      ],
      "name": "OwnershipTransferred",
      "type": "event"
    },
    {
      "anonymous": false,
      "inputs": [
        {
          "indexed": false,
          "internalType": "address",
          "name": "account",
          "type": "address"
        }
      ],
      "name": "Paused",
      "type": "event"
    },
    {
      "anonymous": false,
      "inputs": [
        {
          "indexed": false,
          "internalType": "address",
          "name": "account",
          "type": "address"
        }
      ],
      "name": "Unpaused",
      "type": "event"
    },
    {
      "inputs": [
        {
          "internalType": "uint256",
          "name": "",
          "type": "uint256"
        }
      ],
      "name": "claimDeadlines",
      "outputs": [
        {
          "internalType": "uint256",
          "name": "",
          "type": "uint256"
        }
      ],
      "stateMutability": "view",
      "type": "function"
    },
    {
      "inputs": [
        {
          "internalType": "address",
          "name": "_recipient",
          "type": "address"
        },
        {
          "internalType": "uint256",
          "name": "_eventId",
          "type": "uint256"
        },
        {
          "internalType": "address[]",
          "name": "_tokens",
          "type": "address[]"
        },
        {
          "internalType": "uint256[]",
          "name": "_rewardAmounts",
          "type": "uint256[]"
        },
        {
          "internalType": "bytes",
          "name": "_sig",
          "type": "bytes"
        }
      ],
      "name": "claimReward",
      "outputs": [],
      "stateMutability": "nonpayable",
      "type": "function"
    },
    {
      "inputs": [
        {
          "internalType": "uint256",
          "name": "",
          "type": "uint256"
        },
        {
          "internalType": "address",
          "name": "",
          "type": "address"
        },
        {
          "internalType": "address",
          "name": "",
          "type": "address"
        }
      ],
      "name": "claimedRewardAmounts",
      "outputs": [
        {
          "internalType": "uint256",
          "name": "",
          "type": "uint256"
        }
      ],
      "stateMutability": "view",
      "type": "function"
    },
    {
      "inputs": [
        {
          "internalType": "address",
          "name": "_token",
          "type": "address"
        },
        {
          "internalType": "uint256",
          "name": "_amount",
          "type": "uint256"
        }
      ],
      "name": "contributeToRewardPool",
      "outputs": [],
      "stateMutability": "nonpayable",
      "type": "function"
    },
    {
      "inputs": [
        {
          "internalType": "address",
          "name": "_token",
          "type": "address"
        },
        {
          "internalType": "uint256",
          "name": "_amount",
          "type": "uint256"
        }
      ],
      "name": "drainToken",
      "outputs": [],
      "stateMutability": "nonpayable",
      "type": "function"
    },
    {
      "inputs": [],
      "name": "owner",
      "outputs": [
        {
          "internalType": "address",
          "name": "",
          "type": "address"
        }
      ],
      "stateMutability": "view",
      "type": "function"
    },
    {
      "inputs": [],
      "name": "pause",
      "outputs": [],
      "stateMutability": "nonpayable",
      "type": "function"
    },
    {
      "inputs": [],
      "name": "paused",
      "outputs": [
        {
          "internalType": "bool",
          "name": "",
          "type": "bool"
        }
      ],
      "stateMutability": "view",
      "type": "function"
    },
    {
      "inputs": [],
      "name": "renounceOwnership",
      "outputs": [],
      "stateMutability": "nonpayable",
      "type": "function"
    },
    {
      "inputs": [],
      "name": "rewardSigner",
      "outputs": [
        {
          "internalType": "address",
          "name": "",
          "type": "address"
        }
      ],
      "stateMutability": "view",
      "type": "function"
    },
    {
      "inputs": [
        {
          "internalType": "uint256",
          "name": "_eventId",
          "type": "uint256"
        },
        {
          "internalType": "uint256",
          "name": "_deadline",
          "type": "uint256"
        }
      ],
      "name": "setClaimDeadline",
      "outputs": [],
      "stateMutability": "nonpayable",
      "type": "function"
    },
    {
      "inputs": [
        {
          "internalType": "address",
          "name": "_signer",
          "type": "address"
        }
      ],
      "name": "setSigner",
      "outputs": [],
      "stateMutability": "nonpayable",
      "type": "function"
    },
    {
      "inputs": [
        {
          "internalType": "address",
          "name": "newOwner",
          "type": "address"
        }
      ],
      "name": "transferOwnership",
      "outputs": [],
      "stateMutability": "nonpayable",
      "type": "function"
    },
    {
      "inputs": [],
      "name": "unpause",
      "outputs": [],
      "stateMutability": "nonpayable",
      "type": "function"
    }
  ],
  "transactionHash": "0x147df72bfc694c4ef3eed6fda149cb3b95684d247e0853cf5251503a54dfceb4",
  "args": [],
  "solcInputHash": "9878631d30c5b6915244e19a17f733b0",
  "bytecode": "0x608060405234801561001057600080fd5b506000805460ff1916905561002433610029565b610082565b600080546001600160a01b03838116610100818102610100600160a81b0319851617855560405193049190911692909183917f8be0079c531659141344cd1fd0a4f28419497f9722a3daafe3b4186f6b6457e091a35050565b611762806100916000396000f3fe608060405234801561001057600080fd5b50600436106100ea5760003560e01c8063825168ff1161008c5780639d4323be116100665780639d4323be146101ea578063b8d2ce7f146101fd578063f2fde38b14610210578063f4e6b11c1461022357600080fd5b8063825168ff146101b95780638456cb59146101cc5780638da5cb5b146101d457600080fd5b80635c975abb116100c85780635c975abb146101575780636c19e7831461016d5780636cd943f114610180578063715018a6146101b157600080fd5b80632b5f3ece146100ef578063323f24ab146101225780633f4ba83a1461014d575b600080fd5b61010f6100fd366004611344565b60036020526000908152604090205481565b6040519081526020015b60405180910390f35b600154610135906001600160a01b031681565b6040516001600160a01b039091168152602001610119565b610155610236565b005b60005460ff166040519015158152602001610119565b61015561017b366004611379565b6102a5565b61010f61018e366004611394565b600260209081526000938452604080852082529284528284209052825290205481565b61015561033f565b6101556101c73660046113d0565b6103a9565b610155610457565b60005461010090046001600160a01b0316610135565b6101556101f83660046113d0565b6104bf565b61015561020b3660046113fa565b610589565b61015561021e366004611379565b6105fb565b610155610231366004611461565b6106e3565b6000546001600160a01b0361010090910416331461029b5760405162461bcd60e51b815260206004820181905260248201527f4f776e61626c653a2063616c6c6572206973206e6f7420746865206f776e657260448201526064015b60405180910390fd5b6102a3610a1f565b565b6000546001600160a01b036101009091041633146103055760405162461bcd60e51b815260206004820181905260248201527f4f776e61626c653a2063616c6c6572206973206e6f7420746865206f776e65726044820152606401610292565b600180547fffffffffffffffffffffffff0000000000000000000000000000000000000000166001600160a01b0392909216919091179055565b6000546001600160a01b0361010090910416331461039f5760405162461bcd60e51b815260206004820181905260248201527f4f776e61626c653a2063616c6c6572206973206e6f7420746865206f776e65726044820152606401610292565b6102a36000610abb565b60005460ff16156103ef5760405162461bcd60e51b815260206004820152601060248201526f14185d5cd8589b194e881c185d5cd95960821b6044820152606401610292565b336104056001600160a01b038416823085610b2b565b826001600160a01b0316816001600160a01b03167f57eaaa782395163669286660e541412345ba796d72347d77f65ce69b98241a6b8460405161044a91815260200190565b60405180910390a3505050565b6000546001600160a01b036101009091041633146104b75760405162461bcd60e51b815260206004820181905260248201527f4f776e61626c653a2063616c6c6572206973206e6f7420746865206f776e65726044820152606401610292565b6102a3610bc9565b60005460ff166105115760405162461bcd60e51b815260206004820152601460248201527f5061757361626c653a206e6f74207061757365640000000000000000000000006044820152606401610292565b6000546001600160a01b036101009091041633146105715760405162461bcd60e51b815260206004820181905260248201527f4f776e61626c653a2063616c6c6572206973206e6f7420746865206f776e65726044820152606401610292565b6105856001600160a01b0383163383610c44565b5050565b6000546001600160a01b036101009091041633146105e95760405162461bcd60e51b815260206004820181905260248201527f4f776e61626c653a2063616c6c6572206973206e6f7420746865206f776e65726044820152606401610292565b60009182526003602052604090912055565b6000546001600160a01b0361010090910416331461065b5760405162461bcd60e51b815260206004820181905260248201527f4f776e61626c653a2063616c6c6572206973206e6f7420746865206f776e65726044820152606401610292565b6001600160a01b0381166106d75760405162461bcd60e51b815260206004820152602660248201527f4f776e61626c653a206e6577206f776e657220697320746865207a65726f206160448201527f64647265737300000000000000000000000000000000000000000000000000006064820152608401610292565b6106e081610abb565b50565b60005460ff16156107295760405162461bcd60e51b815260206004820152601060248201526f14185d5cd8589b194e881c185d5cd95960821b6044820152606401610292565b600087815260036020526040902054806107855760405162461bcd60e51b815260206004820152600f60248201527f496e76616c6964206576656e74496400000000000000000000000000000000006044820152606401610292565b804211156107d55760405162461bcd60e51b815260206004820152600d60248201527f436c61696d2065787069726564000000000000000000000000000000000000006044820152606401610292565b8584146108245760405162461bcd60e51b815260206004820152601c60248201527f4d69736d617463682072657761726420696e666f206c656e67746873000000006044820152606401610292565b60006108a846308c8c8c8c8c8c604051602001610848989796959493929190611542565b60408051601f1981840301815282825280516020918201207f19457468657265756d205369676e6564204d6573736167653a0a33320000000084830152603c8085019190915282518085039091018152605c909301909152815191012090565b905060006108ee85858080601f0160208091040260200160405190810160405280939291908181526020018383808284376000920191909152508693925050610c799050565b6001549091506001600160a01b0380831691161461094e5760405162461bcd60e51b815260206004820152600b60248201527f496e76616c6964207369670000000000000000000000000000000000000000006044820152606401610292565b6000805b898110156109c35760006109a68e8e8e8e868181106109735761097361161b565b90506020020160208101906109889190611379565b8d8d8781811061099a5761099a61161b565b90506020020135610c9d565b11156109b157600191505b806109bb81611647565b915050610952565b5080610a115760405162461bcd60e51b815260206004820152600d60248201527f4e6f206e657720726577617264000000000000000000000000000000000000006044820152606401610292565b505050505050505050505050565b60005460ff16610a715760405162461bcd60e51b815260206004820152601460248201527f5061757361626c653a206e6f74207061757365640000000000000000000000006044820152606401610292565b6000805460ff191690557f5db9ee0a495bf2e6ff9c91a7834c1ba4fdd244a5e8aa4e537bd38aeae4b073aa335b6040516001600160a01b03909116815260200160405180910390a1565b600080546001600160a01b038381166101008181027fffffffffffffffffffffff0000000000000000000000000000000000000000ff851617855560405193049190911692909183917f8be0079c531659141344cd1fd0a4f28419497f9722a3daafe3b4186f6b6457e091a35050565b6040516001600160a01b0380851660248301528316604482015260648101829052610bc39085906323b872dd60e01b906084015b60408051601f198184030181529190526020810180517bffffffffffffffffffffffffffffffffffffffffffffffffffffffff167fffffffff0000000000000000000000000000000000000000000000000000000090931692909217909152610d6e565b50505050565b60005460ff1615610c0f5760405162461bcd60e51b815260206004820152601060248201526f14185d5cd8589b194e881c185d5cd95960821b6044820152606401610292565b6000805460ff191660011790557f62e78cea01bee320cd4e420270b5ea74000d11b0c9f74754ebdbfc544b05a258610a9e3390565b6040516001600160a01b038316602482015260448101829052610c7490849063a9059cbb60e01b90606401610b5f565b505050565b6000806000610c888585610e53565b91509150610c9581610ec3565b509392505050565b60008381526002602090815260408083206001600160a01b038089168552908352818420908616845290915281205481610cd78285611662565b60008781526002602090815260408083206001600160a01b03808d168552908352818420908a168085529252909120869055909150610d17908883610c44565b846001600160a01b0316876001600160a01b03167f30cad6625038517bb8c3a96d1ab89d4a527fd0dca8b5550c822c88cbcce09ab083604051610d5c91815260200190565b60405180910390a39695505050505050565b6000610dc3826040518060400160405280602081526020017f5361666545524332303a206c6f772d6c6576656c2063616c6c206661696c6564815250856001600160a01b031661107e9092919063ffffffff16565b805190915015610c745780806020019051810190610de19190611679565b610c745760405162461bcd60e51b815260206004820152602a60248201527f5361666545524332303a204552433230206f7065726174696f6e20646964206e60448201527f6f742073756363656564000000000000000000000000000000000000000000006064820152608401610292565b600080825160411415610e8a5760208301516040840151606085015160001a610e7e87828585611097565b94509450505050610ebc565b825160401415610eb45760208301516040840151610ea9868383611184565b935093505050610ebc565b506000905060025b9250929050565b6000816004811115610ed757610ed761169b565b1415610ee05750565b6001816004811115610ef457610ef461169b565b1415610f425760405162461bcd60e51b815260206004820152601860248201527f45434453413a20696e76616c6964207369676e617475726500000000000000006044820152606401610292565b6002816004811115610f5657610f5661169b565b1415610fa45760405162461bcd60e51b815260206004820152601f60248201527f45434453413a20696e76616c6964207369676e6174757265206c656e677468006044820152606401610292565b6003816004811115610fb857610fb861169b565b14156110115760405162461bcd60e51b815260206004820152602260248201527f45434453413a20696e76616c6964207369676e6174757265202773272076616c604482015261756560f01b6064820152608401610292565b60048160048111156110255761102561169b565b14156106e05760405162461bcd60e51b815260206004820152602260248201527f45434453413a20696e76616c6964207369676e6174757265202776272076616c604482015261756560f01b6064820152608401610292565b606061108d84846000856111cc565b90505b9392505050565b6000807f7fffffffffffffffffffffffffffffff5d576e7357a4501ddfe92f46681b20a08311156110ce575060009050600361117b565b8460ff16601b141580156110e657508460ff16601c14155b156110f7575060009050600461117b565b6040805160008082526020820180845289905260ff881692820192909252606081018690526080810185905260019060a0016020604051602081039080840390855afa15801561114b573d6000803e3d6000fd5b5050604051601f1901519150506001600160a01b0381166111745760006001925092505061117b565b9150600090505b94509492505050565b6000807f7fffffffffffffffffffffffffffffffffffffffffffffffffffffffffffffff831660ff84901c601b016111be87828885611097565b935093505050935093915050565b6060824710156112445760405162461bcd60e51b815260206004820152602660248201527f416464726573733a20696e73756666696369656e742062616c616e636520666f60448201527f722063616c6c00000000000000000000000000000000000000000000000000006064820152608401610292565b843b6112925760405162461bcd60e51b815260206004820152601d60248201527f416464726573733a2063616c6c20746f206e6f6e2d636f6e74726163740000006044820152606401610292565b600080866001600160a01b031685876040516112ae91906116dd565b60006040518083038185875af1925050503d80600081146112eb576040519150601f19603f3d011682016040523d82523d6000602084013e6112f0565b606091505b509150915061130082828661130b565b979650505050505050565b6060831561131a575081611090565b82511561132a5782518084602001fd5b8160405162461bcd60e51b815260040161029291906116f9565b60006020828403121561135657600080fd5b5035919050565b80356001600160a01b038116811461137457600080fd5b919050565b60006020828403121561138b57600080fd5b6110908261135d565b6000806000606084860312156113a957600080fd5b833592506113b96020850161135d565b91506113c76040850161135d565b90509250925092565b600080604083850312156113e357600080fd5b6113ec8361135d565b946020939093013593505050565b6000806040838503121561140d57600080fd5b50508035926020909101359150565b60008083601f84011261142e57600080fd5b50813567ffffffffffffffff81111561144657600080fd5b6020830191508360208260051b8501011115610ebc57600080fd5b60008060008060008060008060a0898b03121561147d57600080fd5b6114868961135d565b975060208901359650604089013567ffffffffffffffff808211156114aa57600080fd5b6114b68c838d0161141c565b909850965060608b01359150808211156114cf57600080fd5b6114db8c838d0161141c565b909650945060808b01359150808211156114f457600080fd5b818b0191508b601f83011261150857600080fd5b81358181111561151757600080fd5b8c602082850101111561152957600080fd5b6020830194508093505050509295985092959890939650565b888152600060206bffffffffffffffffffffffff19808b60601b16828501527f496e63656e74697665526577617264436c61696d0000000000000000000000006034850152808a60601b1660488501525087605c840152607c83018760005b888110156115cd576001600160a01b036115ba8361135d565b16835291830191908301906001016115a1565b50507f07ffffffffffffffffffffffffffffffffffffffffffffffffffffffffffffff8511156115fc57600080fd5b8460051b915081868237600091019081529a9950505050505050505050565b634e487b7160e01b600052603260045260246000fd5b634e487b7160e01b600052601160045260246000fd5b600060001982141561165b5761165b611631565b5060010190565b60008282101561167457611674611631565b500390565b60006020828403121561168b57600080fd5b8151801515811461109057600080fd5b634e487b7160e01b600052602160045260246000fd5b60005b838110156116cc5781810151838201526020016116b4565b83811115610bc35750506000910152565b600082516116ef8184602087016116b1565b9190910192915050565b60208152600082518060208401526117188160408501602087016116b1565b601f01601f1916919091016040019291505056fea26469706673582212200900b41e7c5226763fb386bc8f75b8dcc958769cc7f84576ad29d92f6ddf605c64736f6c634300080b0033",
  "devdoc": {
    "kind": "dev",
    "methods": {
      "claimReward(address,uint256,address[],uint256[],bytes)": {
        "details": "recipient needs to claim all the reward by the deadline",
        "params": {
          "_eventId": "event id",
          "_recipient": "recipient address",
          "_rewardAmounts": "reward amounts",
          "_sig": "signature",
          "_tokens": "reward tokens"
        }
      },
      "contributeToRewardPool(address,uint256)": {
        "params": {
          "_amount": "the amount of token to contribute",
          "_token": "the token address"
        }
      },
      "drainToken(address,uint256)": {
        "details": "emergency use only",
        "params": {
          "_amount": "drained token amount",
          "_token": "the token address"
        }
      },
      "owner()": {
        "details": "Returns the address of the current owner."
      },
      "paused()": {
        "details": "Returns true if the contract is paused, and false otherwise."
      },
      "renounceOwnership()": {
        "details": "Leaves the contract without owner. It will not be possible to call `onlyOwner` functions anymore. Can only be called by the current owner. NOTE: Renouncing ownership will leave the contract without an owner, thereby removing any functionality that is only available to the owner."
      },
      "transferOwnership(address)": {
        "details": "Transfers ownership of the contract to a new account (`newOwner`). Can only be called by the current owner."
      }
    },
    "version": 1
  },
  "userdoc": {
    "kind": "user",
    "methods": {
      "claimReward(address,uint256,address[],uint256[],bytes)": {
        "notice": "Claim reward, checking for signature from the signer"
      },
      "contributeToRewardPool(address,uint256)": {
        "notice": "Contribute tokens to the reward pool"
      },
      "drainToken(address,uint256)": {
        "notice": "Owner drains tokens when the contract is paused"
      },
      "pause()": {
        "notice": "Owner pauses the contract"
      },
      "unpause()": {
        "notice": "Owner unpauses the contract"
      }
    },
    "version": 1
  },
  "storageLayout": {
    "storage": [
      {
        "astId": 121,
        "contract": "contracts/IncentiveEventsRewardNew.sol:IncentiveEventsRewardNew",
        "label": "_paused",
        "offset": 0,
        "slot": "0",
        "type": "t_bool"
      },
      {
        "astId": 7,
        "contract": "contracts/IncentiveEventsRewardNew.sol:IncentiveEventsRewardNew",
        "label": "_owner",
        "offset": 1,
        "slot": "0",
        "type": "t_address"
      },
      {
        "astId": 2039,
        "contract": "contracts/IncentiveEventsRewardNew.sol:IncentiveEventsRewardNew",
        "label": "rewardSigner",
        "offset": 0,
        "slot": "1",
        "type": "t_address"
      },
      {
        "astId": 2047,
        "contract": "contracts/IncentiveEventsRewardNew.sol:IncentiveEventsRewardNew",
        "label": "claimedRewardAmounts",
        "offset": 0,
        "slot": "2",
        "type": "t_mapping(t_uint256,t_mapping(t_address,t_mapping(t_address,t_uint256)))"
      },
      {
        "astId": 2051,
        "contract": "contracts/IncentiveEventsRewardNew.sol:IncentiveEventsRewardNew",
        "label": "claimDeadlines",
        "offset": 0,
        "slot": "3",
        "type": "t_mapping(t_uint256,t_uint256)"
      }
    ],
    "types": {
      "t_address": {
        "encoding": "inplace",
        "label": "address",
        "numberOfBytes": "20"
      },
      "t_bool": {
        "encoding": "inplace",
        "label": "bool",
        "numberOfBytes": "1"
      },
      "t_mapping(t_address,t_mapping(t_address,t_uint256))": {
        "encoding": "mapping",
        "key": "t_address",
        "label": "mapping(address => mapping(address => uint256))",
        "numberOfBytes": "32",
        "value": "t_mapping(t_address,t_uint256)"
      },
      "t_mapping(t_address,t_uint256)": {
        "encoding": "mapping",
        "key": "t_address",
        "label": "mapping(address => uint256)",
        "numberOfBytes": "32",
        "value": "t_uint256"
      },
      "t_mapping(t_uint256,t_mapping(t_address,t_mapping(t_address,t_uint256)))": {
        "encoding": "mapping",
        "key": "t_uint256",
        "label": "mapping(uint256 => mapping(address => mapping(address => uint256)))",
        "numberOfBytes": "32",
        "value": "t_mapping(t_address,t_mapping(t_address,t_uint256))"
      },
      "t_mapping(t_uint256,t_uint256)": {
        "encoding": "mapping",
        "key": "t_uint256",
        "label": "mapping(uint256 => uint256)",
        "numberOfBytes": "32",
        "value": "t_uint256"
      },
      "t_uint256": {
        "encoding": "inplace",
        "label": "uint256",
        "numberOfBytes": "32"
      }
    }
  }
}